{
  "abi": [
    {
      "inputs": [
        {
          "internalType": "address",
          "name": "verifiers",
          "type": "address"
        }
      ],
      "stateMutability": "nonpayable",
      "type": "constructor"
    },
    {
      "inputs": [],
      "name": "NonExistantClaim",
      "type": "error"
    },
    {
      "inputs": [],
      "name": "NotIssuer",
      "type": "error"
    },
    {
      "inputs": [],
      "name": "NotIssuerOrSubject",
      "type": "error"
    },
    {
      "anonymous": false,
      "inputs": [
        {
          "indexed": false,
          "internalType": "uint256",
          "name": "claimId",
          "type": "uint256"
        },
        {
          "indexed": true,
          "internalType": "uint256",
          "name": "topic",
          "type": "uint256"
        },
        {
          "indexed": false,
          "internalType": "uint256",
          "name": "scheme",
          "type": "uint256"
        },
        {
          "indexed": true,
          "internalType": "address",
          "name": "issuer",
          "type": "address"
        },
        {
          "indexed": true,
          "internalType": "address",
          "name": "subject",
          "type": "address"
        },
        {
          "indexed": false,
          "internalType": "string",
          "name": "uri",
          "type": "string"
        }
      ],
      "name": "ClaimAdded",
      "type": "event"
    },
    {
      "anonymous": false,
      "inputs": [
        {
          "indexed": false,
          "internalType": "uint256",
          "name": "claimId",
          "type": "uint256"
        },
        {
          "indexed": false,
          "internalType": "uint256",
          "name": "topic",
          "type": "uint256"
        },
        {
          "indexed": false,
          "internalType": "uint256",
          "name": "scheme",
          "type": "uint256"
        },
        {
          "indexed": false,
          "internalType": "address",
          "name": "issuer",
          "type": "address"
        },
        {
          "indexed": false,
          "internalType": "address",
          "name": "subject",
          "type": "address"
        },
        {
          "indexed": false,
          "internalType": "string",
          "name": "uri",
          "type": "string"
        }
      ],
      "name": "ClaimChanged",
      "type": "event"
    },
    {
      "anonymous": false,
      "inputs": [
        {
          "indexed": false,
          "internalType": "uint256",
          "name": "claimId",
          "type": "uint256"
        }
      ],
      "name": "ClaimRevoked",
      "type": "event"
    },
    {
      "anonymous": false,
      "inputs": [
        {
          "indexed": true,
          "internalType": "address",
          "name": "previousOwner",
          "type": "address"
        },
        {
          "indexed": true,
          "internalType": "address",
          "name": "newOwner",
          "type": "address"
        }
      ],
      "name": "OwnershipTransferred",
      "type": "event"
    },
    {
      "anonymous": false,
      "inputs": [
        {
          "indexed": true,
          "internalType": "address",
          "name": "verifiersRegistrAddress",
          "type": "address"
        }
      ],
      "name": "VerifiersUpdated",
      "type": "event"
    },
    {
      "inputs": [
        {
          "internalType": "uint256",
          "name": "topic",
          "type": "uint256"
        },
        {
          "internalType": "uint256",
          "name": "scheme",
          "type": "uint256"
        },
        {
          "internalType": "address",
          "name": "subject",
          "type": "address"
        },
        {
          "internalType": "string",
          "name": "uri",
          "type": "string"
        }
      ],
      "name": "addClaim",
      "outputs": [
        {
          "internalType": "uint256",
          "name": "claimId",
          "type": "uint256"
        }
      ],
      "stateMutability": "nonpayable",
      "type": "function"
    },
    {
      "inputs": [
        {
          "internalType": "uint256",
          "name": "claim",
          "type": "uint256"
        }
      ],
      "name": "checkIsClaimRevoked",
      "outputs": [
        {
          "internalType": "bool",
          "name": "",
          "type": "bool"
        }
      ],
      "stateMutability": "view",
      "type": "function"
    },
    {
      "inputs": [
        {
          "internalType": "uint256",
          "name": "claim",
          "type": "uint256"
        }
      ],
      "name": "checkIsClaimValid",
      "outputs": [
        {
          "internalType": "bool",
          "name": "claimValid",
          "type": "bool"
        }
      ],
      "stateMutability": "view",
      "type": "function"
    },
    {
      "inputs": [
        {
          "internalType": "uint256",
          "name": "claim",
          "type": "uint256"
        }
      ],
      "name": "getClaim",
      "outputs": [
        {
          "internalType": "uint256",
          "name": "",
          "type": "uint256"
        },
        {
          "internalType": "uint256",
          "name": "",
          "type": "uint256"
        },
        {
          "internalType": "address",
          "name": "",
          "type": "address"
        },
        {
          "internalType": "string",
          "name": "",
          "type": "string"
        }
      ],
      "stateMutability": "view",
      "type": "function"
    },
    {
      "inputs": [
        {
          "internalType": "address",
          "name": "issuer",
          "type": "address"
        }
      ],
      "name": "getClaimsByIssuer",
      "outputs": [
        {
          "internalType": "uint256[]",
          "name": "",
          "type": "uint256[]"
        }
      ],
      "stateMutability": "view",
      "type": "function"
    },
    {
      "inputs": [
        {
          "internalType": "address",
          "name": "subject",
          "type": "address"
        }
      ],
      "name": "getClaimsBySubject",
      "outputs": [
        {
          "internalType": "uint256[]",
          "name": "",
          "type": "uint256[]"
        }
      ],
      "stateMutability": "view",
      "type": "function"
    },
    {
      "inputs": [
        {
          "internalType": "address",
          "name": "issuer",
          "type": "address"
        },
        {
          "internalType": "uint256",
          "name": "topic",
          "type": "uint256"
        }
      ],
      "name": "getClaimsIssuerTopic",
      "outputs": [
        {
          "internalType": "uint256[]",
          "name": "",
          "type": "uint256[]"
        }
      ],
      "stateMutability": "view",
      "type": "function"
    },
    {
      "inputs": [
        {
          "internalType": "address",
          "name": "subject",
          "type": "address"
        },
        {
          "internalType": "uint256",
          "name": "topic",
          "type": "uint256"
        }
      ],
      "name": "getClaimsSubjectTopic",
      "outputs": [
        {
          "internalType": "uint256[]",
          "name": "",
          "type": "uint256[]"
        }
      ],
      "stateMutability": "view",
      "type": "function"
    },
    {
      "inputs": [],
      "name": "owner",
      "outputs": [
        {
          "internalType": "address",
          "name": "",
          "type": "address"
        }
      ],
      "stateMutability": "view",
      "type": "function"
    },
    {
      "inputs": [],
      "name": "renounceOwnership",
      "outputs": [],
      "stateMutability": "nonpayable",
      "type": "function"
    },
    {
      "inputs": [
        {
          "internalType": "uint256",
          "name": "claim",
          "type": "uint256"
        }
      ],
      "name": "revokeClaim",
      "outputs": [
        {
          "internalType": "bool",
          "name": "",
          "type": "bool"
        }
      ],
      "stateMutability": "nonpayable",
      "type": "function"
    },
    {
      "inputs": [
        {
          "internalType": "address",
          "name": "verifiers",
          "type": "address"
        }
      ],
      "name": "setVerifiers",
      "outputs": [],
      "stateMutability": "nonpayable",
      "type": "function"
    },
    {
      "inputs": [
        {
          "internalType": "address",
          "name": "newOwner",
          "type": "address"
        }
      ],
      "name": "transferOwnership",
      "outputs": [],
      "stateMutability": "nonpayable",
      "type": "function"
    }
  ],
  "bytecode": {
    "object": "0x608060405234801561001057600080fd5b506040516110fd3803806110fd83398101604081905261002f9161013f565b61003833610047565b61004181610097565b5061016f565b600080546001600160a01b038381166001600160a01b0319831681178455604051919092169283917f8be0079c531659141344cd1fd0a4f28419497f9722a3daafe3b4186f6b6457e09190a35050565b6000546001600160a01b031633146100f55760405162461bcd60e51b815260206004820181905260248201527f4f776e61626c653a2063616c6c6572206973206e6f7420746865206f776e6572604482015260640160405180910390fd5b600180546001600160a01b0319166001600160a01b0383169081179091556040517f0c1fa8a4842f055193957b22886bcdbf5bf68266bdf15ef5bd149bf4dc72a4f190600090a250565b60006020828403121561015157600080fd5b81516001600160a01b038116811461016857600080fd5b9392505050565b610f7f8061017e6000396000f3fe608060405234801561001057600080fd5b50600436106100cf5760003560e01c80639a6a5e411161008c578063c273706511610066578063c2737065146101c0578063ec6124b6146101d3578063f10ab11b146101f4578063f2fde38b1461020757600080fd5b80639a6a5e41146101875780639c9ec9421461019a578063c21d89dd146101ad57600080fd5b80631802e548146100d457806329bc27981461010c5780635aef24471461012c5780636d6936a31461014f578063715018a6146101645780638da5cb5b1461016c575b600080fd5b6100f76100e2366004610c46565b60009081526003602052604090205460ff1690565b60405190151581526020015b60405180910390f35b61011f61011a366004610c7b565b61021a565b6040516101039190610c9d565b61013f61013a366004610c46565b610286565b6040516101039493929190610d2e565b61016261015d366004610c7b565b6103ce565b005b61016261044b565b6000546040516001600160a01b039091168152602001610103565b6100f7610195366004610c46565b610481565b61011f6101a8366004610d65565b61063a565b6100f76101bb366004610c46565b6106af565b61011f6101ce366004610d65565b6107aa565b6101e66101e1366004610da5565b61081d565b604051908152602001610103565b61011f610202366004610c7b565b610a58565b610162610215366004610c7b565b610ac2565b6001600160a01b03811660009081526004602090815260409182902080548351818402810184019094528084526060939283018282801561027a57602002820191906000526020600020905b815481526020019060010190808311610266575b50505050509050919050565b60008060006060600285815481106102a0576102a0610e7a565b906000526020600020906005020160000154600286815481106102c5576102c5610e7a565b906000526020600020906005020160010154600287815481106102ea576102ea610e7a565b906000526020600020906005020160020160009054906101000a90046001600160a01b03166002888154811061032257610322610e7a565b906000526020600020906005020160040180805461033f90610e90565b80601f016020809104026020016040519081016040528092919081815260200182805461036b90610e90565b80156103b85780601f1061038d576101008083540402835291602001916103b8565b820191906000526020600020905b81548152906001019060200180831161039b57829003601f168201915b5050505050905093509350935093509193509193565b6000546001600160a01b031633146104015760405162461bcd60e51b81526004016103f890610eca565b60405180910390fd5b600180546001600160a01b0319166001600160a01b0383169081179091556040517f0c1fa8a4842f055193957b22886bcdbf5bf68266bdf15ef5bd149bf4dc72a4f190600090a250565b6000546001600160a01b031633146104755760405162461bcd60e51b81526004016103f890610eca565b61047f6000610b5d565b565b60008181526003602052604081205460ff1680156105405750600154600280546001600160a01b039092169163f0f401899190859081106104c4576104c4610e7a565b600091825260209091206005909102016002015460405160e083901b6001600160e01b03191681526001600160a01b039091166004820152602401602060405180830381865afa15801561051c573d6000803e3d6000fd5b505050506040513d601f19601f820116820180604052508101906105409190610eff565b1561063257600154600280546001600160a01b039092169163c446097591908590811061056f5761056f610e7a565b906000526020600020906005020160020160009054906101000a90046001600160a01b0316600285815481106105a7576105a7610e7a565b60009182526020909120600590910201546040516001600160e01b031960e085901b1681526001600160a01b0390921660048301526024820152604401602060405180830381865afa158015610601573d6000803e3d6000fd5b505050506040513d601f19601f820116820180604052508101906106259190610eff565b1561063257506001919050565b506000919050565b6001600160a01b03821660009081526007602090815260408083208484528252918290208054835181840281018401909452808452606093928301828280156106a257602002820191906000526020600020905b81548152602001906001019080831161068e575b5050505050905092915050565b600081600281815481106106c5576106c5610e7a565b60009182526020909120600590910201600201546001600160a01b0316336001600160a01b03161461070a576040516354ec506360e01b815260040160405180910390fd5b826002818154811061071e5761071e610e7a565b9060005260206000209060050201600001546000036107505760405163dbc9651760e01b815260040160405180910390fd5b60008481526003602052604090819020805460ff19169055517f1f3acfc037b50bf4fa00502a4cc01952d8e8bf414efbab344d48c04387513831906107989086815260200190565b60405180910390a15060019392505050565b6001600160a01b03821660009081526005602090815260408083208484528252918290208054835181840281018401909452808452606093928301828280156106a2576020028201919060005260206000209081548152602001906001019080831161068e575050505050905092915050565b6040805160a0810182528581526020808201868152339383018481526001600160a01b038781166060860190815260808601888152600280546001810182556000918252885160059091027f405787fa12a823e0f2b7631cc41b3ba8828b3321ca811111fa75cd3aa3bb5ace810191825596517f405787fa12a823e0f2b7631cc41b3ba8828b3321ca811111fa75cd3aa3bb5acf88015594517f405787fa12a823e0f2b7631cc41b3ba8828b3321ca811111fa75cd3aa3bb5ad0870180549186166001600160a01b031992831617905592517f405787fa12a823e0f2b7631cc41b3ba8828b3321ca811111fa75cd3aa3bb5ad187018054919095169316929092179092559051805191969594859461095d937f405787fa12a823e0f2b7631cc41b3ba8828b3321ca811111fa75cd3aa3bb5ad29091019290910190610bad565b50506002546000818152600360209081526040808320805460ff191660019081179091556001600160a01b03808c16808652600485528386208054808501825590875285872001879055808652600585528386208f875285528386208054808501825590875285872001879055908916808652600685528386208054808501825590875285872001879055808652600785528386208f875285528386208054938401815586529390942001849055519296509092509089907f4cf7b1ee8a78cfe59e2842d2cd92bcb384a03762a3fd8ca4ff5f4ab8bc435d8190610a469088908c908b90610f21565b60405180910390a45050949350505050565b6001600160a01b03811660009081526006602090815260409182902080548351818402810184019094528084526060939283018282801561027a57602002820191906000526020600020908154815260200190600101908083116102665750505050509050919050565b6000546001600160a01b03163314610aec5760405162461bcd60e51b81526004016103f890610eca565b6001600160a01b038116610b515760405162461bcd60e51b815260206004820152602660248201527f4f776e61626c653a206e6577206f776e657220697320746865207a65726f206160448201526564647265737360d01b60648201526084016103f8565b610b5a81610b5d565b50565b600080546001600160a01b038381166001600160a01b0319831681178455604051919092169283917f8be0079c531659141344cd1fd0a4f28419497f9722a3daafe3b4186f6b6457e09190a35050565b828054610bb990610e90565b90600052602060002090601f016020900481019282610bdb5760008555610c21565b82601f10610bf457805160ff1916838001178555610c21565b82800160010185558215610c21579182015b82811115610c21578251825591602001919060010190610c06565b50610c2d929150610c31565b5090565b5b80821115610c2d5760008155600101610c32565b600060208284031215610c5857600080fd5b5035919050565b80356001600160a01b0381168114610c7657600080fd5b919050565b600060208284031215610c8d57600080fd5b610c9682610c5f565b9392505050565b6020808252825182820181905260009190848201906040850190845b81811015610cd557835183529284019291840191600101610cb9565b50909695505050505050565b6000815180845260005b81811015610d0757602081850181015186830182015201610ceb565b81811115610d19576000602083870101525b50601f01601f19169290920160200192915050565b84815283602082015260018060a01b0383166040820152608060608201526000610d5b6080830184610ce1565b9695505050505050565b60008060408385031215610d7857600080fd5b610d8183610c5f565b946020939093013593505050565b634e487b7160e01b600052604160045260246000fd5b60008060008060808587031215610dbb57600080fd5b8435935060208501359250610dd260408601610c5f565b9150606085013567ffffffffffffffff80821115610def57600080fd5b818701915087601f830112610e0357600080fd5b813581811115610e1557610e15610d8f565b604051601f8201601f19908116603f01168101908382118183101715610e3d57610e3d610d8f565b816040528281528a6020848701011115610e5657600080fd5b82602086016020830137600060208483010152809550505050505092959194509250565b634e487b7160e01b600052603260045260246000fd5b600181811c90821680610ea457607f821691505b602082108103610ec457634e487b7160e01b600052602260045260246000fd5b50919050565b6020808252818101527f4f776e61626c653a2063616c6c6572206973206e6f7420746865206f776e6572604082015260600190565b600060208284031215610f1157600080fd5b81518015158114610c9657600080fd5b838152826020820152606060408201526000610f406060830184610ce1565b9594505050505056fea2646970667358221220b6058fcb170b8e9fdc9d065dedd55a384c075534213a324d6d3ad6089949491e64736f6c634300080e0033",
    "linkReferences": {}
  },
  "methodIdentifiers": {
    "addClaim(uint256,uint256,address,string)": "ec6124b6",
    "checkIsClaimRevoked(uint256)": "1802e548",
    "checkIsClaimValid(uint256)": "9a6a5e41",
    "getClaim(uint256)": "5aef2447",
    "getClaimsByIssuer(address)": "f10ab11b",
    "getClaimsBySubject(address)": "29bc2798",
    "getClaimsIssuerTopic(address,uint256)": "9c9ec942",
    "getClaimsSubjectTopic(address,uint256)": "c2737065",
    "owner()": "8da5cb5b",
    "renounceOwnership()": "715018a6",
    "revokeClaim(uint256)": "c21d89dd",
    "setVerifiers(address)": "6d6936a3",
    "transferOwnership(address)": "f2fde38b"
  },
  "id": 2
}