{
  "abi": [
    {
      "inputs": [],
      "name": "OnlyIdentity",
      "type": "error"
    },
    {
      "anonymous": false,
      "inputs": [
        {
          "indexed": true,
          "internalType": "address",
          "name": "holderAddress",
          "type": "address"
        },
        {
          "indexed": true,
          "internalType": "uint16",
          "name": "country",
          "type": "uint16"
        }
      ],
      "name": "CountryUpdated",
      "type": "event"
    },
    {
      "anonymous": false,
      "inputs": [
        {
          "indexed": true,
          "internalType": "address",
          "name": "holderAddress",
          "type": "address"
        },
        {
          "indexed": true,
          "internalType": "uint256",
          "name": "identity",
          "type": "uint256"
        }
      ],
      "name": "IdentityRegistered",
      "type": "event"
    },
    {
      "anonymous": false,
      "inputs": [
        {
          "indexed": true,
          "internalType": "address",
          "name": "holderAddress",
          "type": "address"
        },
        {
          "indexed": true,
          "internalType": "uint256",
          "name": "identity",
          "type": "uint256"
        }
      ],
      "name": "IdentityRemoved",
      "type": "event"
    },
    {
      "inputs": [
        {
          "internalType": "uint256",
          "name": "",
          "type": "uint256"
        }
      ],
      "name": "_identities",
      "outputs": [
        {
          "internalType": "bool",
          "name": "exists",
          "type": "bool"
        },
        {
          "internalType": "enum IHyperbaseIdentityRegistry.Country",
          "name": "country",
          "type": "uint8"
        }
      ],
      "stateMutability": "view",
      "type": "function"
    },
    {
      "inputs": [
        {
          "internalType": "address",
          "name": "",
          "type": "address"
        }
      ],
      "name": "_identitiesByAddress",
      "outputs": [
        {
          "internalType": "uint256",
          "name": "",
          "type": "uint256"
        }
      ],
      "stateMutability": "view",
      "type": "function"
    },
    {
      "inputs": [
        {
          "internalType": "uint256",
          "name": "identity",
          "type": "uint256"
        }
      ],
      "name": "deleteIdentity",
      "outputs": [],
      "stateMutability": "nonpayable",
      "type": "function"
    },
    {
      "inputs": [
        {
          "internalType": "address",
          "name": "account",
          "type": "address"
        }
      ],
      "name": "deleteIdentityByAddress",
      "outputs": [],
      "stateMutability": "nonpayable",
      "type": "function"
    },
    {
      "inputs": [
        {
          "internalType": "uint256",
          "name": "identity",
          "type": "uint256"
        }
      ],
      "name": "getCountry",
      "outputs": [
        {
          "internalType": "uint16",
          "name": "",
          "type": "uint16"
        }
      ],
      "stateMutability": "view",
      "type": "function"
    },
    {
      "inputs": [
        {
          "internalType": "address",
          "name": "account",
          "type": "address"
        }
      ],
      "name": "getCountryByAddress",
      "outputs": [
        {
          "internalType": "uint16",
          "name": "",
          "type": "uint16"
        }
      ],
      "stateMutability": "view",
      "type": "function"
    },
    {
      "inputs": [
        {
          "internalType": "uint256",
          "name": "identity",
          "type": "uint256"
        }
      ],
      "name": "getIdentity",
      "outputs": [
        {
          "internalType": "bool",
          "name": "",
          "type": "bool"
        },
        {
          "internalType": "uint16",
          "name": "",
          "type": "uint16"
        }
      ],
      "stateMutability": "view",
      "type": "function"
    },
    {
      "inputs": [
        {
          "internalType": "address",
          "name": "account",
          "type": "address"
        }
      ],
      "name": "getIdentityByAddress",
      "outputs": [
        {
          "internalType": "bool",
          "name": "",
          "type": "bool"
        },
        {
          "internalType": "uint16",
          "name": "",
          "type": "uint16"
        }
      ],
      "stateMutability": "view",
      "type": "function"
    },
    {
      "inputs": [
        {
          "internalType": "address",
          "name": "account",
          "type": "address"
        },
        {
          "internalType": "uint16",
          "name": "country",
          "type": "uint16"
        }
      ],
      "name": "newIdentity",
      "outputs": [
        {
          "internalType": "uint256",
          "name": "identityId_",
          "type": "uint256"
        }
      ],
      "stateMutability": "nonpayable",
      "type": "function"
    },
    {
      "inputs": [
        {
          "internalType": "uint256",
          "name": "identity",
          "type": "uint256"
        },
        {
          "internalType": "uint16",
          "name": "country",
          "type": "uint16"
        }
      ],
      "name": "setCountry",
      "outputs": [],
      "stateMutability": "nonpayable",
      "type": "function"
    }
  ],
  "bytecode": {
    "object": "0x608060405234801561001057600080fd5b50610709806100206000396000f3fe608060405234801561001057600080fd5b506004361061009e5760003560e01c8063afa5e0a911610066578063afa5e0a91461014c578063ce45c55d14610172578063d182704a14610185578063f2f5cd1d14610198578063ffb94cb3146101ab57600080fd5b8063011493af146100a357806321b8c1f6146100b857806337c29084146100eb5780634d083a9e1461010c57806385e3f0581461011f575b600080fd5b6100b66100b13660046105a6565b6101be565b005b6100d86100c63660046105e9565b60016020526000908152604090205481565b6040519081526020015b60405180910390f35b6100fe6100f936600461060b565b610287565b6040516100e292919061063a565b6100b661011a3660046105e9565b6102b4565b61013261012d36600461060b565b6102d9565b60408051921515835261ffff9091166020830152016100e2565b61015f61015a36600461060b565b610341565b60405161ffff90911681526020016100e2565b6100d861018036600461066e565b610380565b61015f6101933660046105e9565b6103cb565b6101326101a63660046105e9565b6103ed565b6100b66101b936600461060b565b610411565b33600090815260016020526040902054829081146101ef57604051631bba566f60e01b815260040160405180910390fd5b8161ffff1660c381111561020557610205610624565b336000908152600160205260408120548154811061022557610225610698565b6000918252602090912001805461ff0019166101008360c381111561024c5761024c610624565b021790555060405161ffff83169033907f04ed3b726495c2dca1ff1215d9ca54e1a4030abb5e82b0f6ce55702416cee85390600090a3505050565b6000818154811061029757600080fd5b60009182526020909120015460ff80821692506101009091041682565b6001600160a01b0381166000908152600160205260409020546102d690610411565b50565b600080600083815481106102ef576102ef610698565b6000918252602082200154815460ff90911691908590811061031357610313610698565b600091825260209091200154610100900460ff1660c381111561033857610338610624565b91509150915091565b600080828154811061035557610355610698565b600091825260209091200154610100900460ff1660c381111561037a5761037a610624565b92915050565b600061038c8383610497565b905080836001600160a01b03167f22bfb6218489c201b6ec174e5dd0380b7877b3a2d12eed0542f6b5e8ef712f2860405160405180910390a392915050565b6001600160a01b03811660009081526001602052604081205461037a90610341565b6001600160a01b0381166000908152600160205260408120548190610338906102d9565b336000908152600160205260409020548190811461044257604051631bba566f60e01b815260040160405180910390fd5b6000828154811061045557610455610698565b60009182526020822001805461ffff19169055604051839133917ff06dfe9062e9317cd357560ea667d65a9b032f1a674c04e99653e894e145c8fa9190a35050565b60008060405180604001604052806001151581526020018461ffff1660c38111156104c4576104c4610624565b60c38111156104d5576104d5610624565b90526000805460018101825590805281517f290decd9548b62a8d60345a988386fc84ba6bc95484008f6362f93160ef3e563909101805491151560ff19831681178255602084015193945084939192839161ff00191661ffff19909116176101008360c381111561054857610548610624565b02179055505060005461055e91506001906106ae565b6001600160a01b03851660009081526001602081905260408220929092555461058791906106ae565b949350505050565b803561ffff811681146105a157600080fd5b919050565b600080604083850312156105b957600080fd5b823591506105c96020840161058f565b90509250929050565b80356001600160a01b03811681146105a157600080fd5b6000602082840312156105fb57600080fd5b610604826105d2565b9392505050565b60006020828403121561061d57600080fd5b5035919050565b634e487b7160e01b600052602160045260246000fd5b82151581526040810160c4831061066157634e487b7160e01b600052602160045260246000fd5b8260208301529392505050565b6000806040838503121561068157600080fd5b61068a836105d2565b91506105c96020840161058f565b634e487b7160e01b600052603260045260246000fd5b6000828210156106ce57634e487b7160e01b600052601160045260246000fd5b50039056fea2646970667358221220acfeff814e4a487e43b312f762eb8b251949922a55122760d5b3ec80296da58964736f6c634300080e0033",
    "linkReferences": {}
  },
  "methodIdentifiers": {
    "_identities(uint256)": "37c29084",
    "_identitiesByAddress(address)": "21b8c1f6",
    "deleteIdentity(uint256)": "ffb94cb3",
    "deleteIdentityByAddress(address)": "4d083a9e",
    "getCountry(uint256)": "afa5e0a9",
    "getCountryByAddress(address)": "d182704a",
    "getIdentity(uint256)": "85e3f058",
    "getIdentityByAddress(address)": "f2f5cd1d",
    "newIdentity(address,uint16)": "ce45c55d",
    "setCountry(uint256,uint16)": "011493af"
  },
  "id": 3
}