{
  "abi": [
    {
      "inputs": [],
      "name": "EmptyClaimTopics",
      "type": "error"
    },
    {
      "inputs": [],
      "name": "NonExistantVerifier",
      "type": "error"
    },
    {
      "inputs": [],
      "name": "VerifierAlreadyExists",
      "type": "error"
    },
    {
      "anonymous": false,
      "inputs": [
        {
          "indexed": true,
          "internalType": "address",
          "name": "previousOwner",
          "type": "address"
        },
        {
          "indexed": true,
          "internalType": "address",
          "name": "newOwner",
          "type": "address"
        }
      ],
      "name": "OwnershipTransferred",
      "type": "event"
    },
    {
      "anonymous": false,
      "inputs": [
        {
          "indexed": true,
          "internalType": "address",
          "name": "verifier",
          "type": "address"
        },
        {
          "indexed": false,
          "internalType": "uint256[]",
          "name": "trustedTopics",
          "type": "uint256[]"
        }
      ],
      "name": "TrustedClaimTopicsUpdated",
      "type": "event"
    },
    {
      "anonymous": false,
      "inputs": [
        {
          "indexed": true,
          "internalType": "address",
          "name": "verifier",
          "type": "address"
        },
        {
          "indexed": false,
          "internalType": "uint256[]",
          "name": "claimTopics",
          "type": "uint256[]"
        }
      ],
      "name": "TrustedVerifierAdded",
      "type": "event"
    },
    {
      "anonymous": false,
      "inputs": [
        {
          "indexed": true,
          "internalType": "address",
          "name": "verifier",
          "type": "address"
        }
      ],
      "name": "TrustedVerifierRemoved",
      "type": "event"
    },
    {
      "inputs": [
        {
          "internalType": "address",
          "name": "",
          "type": "address"
        },
        {
          "internalType": "uint256",
          "name": "",
          "type": "uint256"
        }
      ],
      "name": "_verifierTrustedTopics",
      "outputs": [
        {
          "internalType": "uint256",
          "name": "",
          "type": "uint256"
        }
      ],
      "stateMutability": "view",
      "type": "function"
    },
    {
      "inputs": [
        {
          "internalType": "uint256",
          "name": "",
          "type": "uint256"
        }
      ],
      "name": "_verifiers",
      "outputs": [
        {
          "internalType": "address",
          "name": "",
          "type": "address"
        }
      ],
      "stateMutability": "view",
      "type": "function"
    },
    {
      "inputs": [
        {
          "internalType": "address",
          "name": "verifier",
          "type": "address"
        },
        {
          "internalType": "uint256[]",
          "name": "trustedTopics",
          "type": "uint256[]"
        }
      ],
      "name": "addTrustedVerifier",
      "outputs": [
        {
          "internalType": "uint256",
          "name": "",
          "type": "uint256"
        }
      ],
      "stateMutability": "nonpayable",
      "type": "function"
    },
    {
      "inputs": [
        {
          "internalType": "address",
          "name": "verifier",
          "type": "address"
        }
      ],
      "name": "checkIsVerifier",
      "outputs": [
        {
          "internalType": "bool",
          "name": "",
          "type": "bool"
        }
      ],
      "stateMutability": "view",
      "type": "function"
    },
    {
      "inputs": [
        {
          "internalType": "address",
          "name": "verifier",
          "type": "address"
        },
        {
          "internalType": "uint256",
          "name": "topic",
          "type": "uint256"
        }
      ],
      "name": "checkIsVerifierTrustedTopic",
      "outputs": [
        {
          "internalType": "bool",
          "name": "",
          "type": "bool"
        }
      ],
      "stateMutability": "view",
      "type": "function"
    },
    {
      "inputs": [],
      "name": "owner",
      "outputs": [
        {
          "internalType": "address",
          "name": "",
          "type": "address"
        }
      ],
      "stateMutability": "view",
      "type": "function"
    },
    {
      "inputs": [
        {
          "internalType": "address",
          "name": "verifier",
          "type": "address"
        }
      ],
      "name": "removeTrustedVerifier",
      "outputs": [],
      "stateMutability": "nonpayable",
      "type": "function"
    },
    {
      "inputs": [],
      "name": "renounceOwnership",
      "outputs": [],
      "stateMutability": "nonpayable",
      "type": "function"
    },
    {
      "inputs": [
        {
          "internalType": "address",
          "name": "newOwner",
          "type": "address"
        }
      ],
      "name": "transferOwnership",
      "outputs": [],
      "stateMutability": "nonpayable",
      "type": "function"
    },
    {
      "inputs": [
        {
          "internalType": "address",
          "name": "verifier",
          "type": "address"
        },
        {
          "internalType": "uint256[]",
          "name": "trustedTopics",
          "type": "uint256[]"
        }
      ],
      "name": "updateVerifierClaimTopics",
      "outputs": [],
      "stateMutability": "nonpayable",
      "type": "function"
    }
  ],
  "bytecode": {
    "object": "0x608060405234801561001057600080fd5b5061001a3361001f565b61006f565b600080546001600160a01b038381166001600160a01b0319831681178455604051919092169283917f8be0079c531659141344cd1fd0a4f28419497f9722a3daafe3b4186f6b6457e09190a35050565b610a3e8061007e6000396000f3fe608060405234801561001057600080fd5b506004361061009e5760003560e01c8063dd5ae16011610066578063dd5ae1601461012e578063ecccf27b14610141578063f0f4018914610154578063f2fde38b14610167578063f7efada21461017a57600080fd5b8063715018a6146100a3578063801d2cf1146100ad57806381e45bd2146100c05780638da5cb5b146100e6578063c44609751461010b575b600080fd5b6100ab61018d565b005b6100ab6100bb36600461086f565b6101cc565b6100d36100ce366004610891565b61030c565b6040519081526020015b60405180910390f35b6000546001600160a01b03165b6040516001600160a01b0390911681526020016100dd565b61011e610119366004610917565b610477565b60405190151581526020016100dd565b6100d361013c366004610917565b610500565b6100ab61014f366004610891565b610531565b61011e61016236600461086f565b610657565b6100ab61017536600461086f565b6106c0565b6100f3610188366004610941565b61075b565b6000546001600160a01b031633146101c05760405162461bcd60e51b81526004016101b79061095a565b60405180910390fd5b6101ca6000610785565b565b6001600160a01b0381166000908152600260205260408120548291036102055760405163163091ab60e21b815260040160405180910390fd5b6000546001600160a01b0316331461022f5760405162461bcd60e51b81526004016101b79061095a565b60005b6001548110156102b257826001600160a01b0316600182815481106102595761025961098f565b6000918252602090912001546001600160a01b0316036102a057600181815481106102865761028661098f565b600091825260209091200180546001600160a01b03191690555b806102aa816109a5565b915050610232565b506001600160a01b03821660009081526002602052604081206102d4916107d5565b6040516001600160a01b038316907f950a8e112b31e97be460baabc0d4707401514b9c8de4a4bc01b7b1554e4dbb1690600090a25050565b600080546001600160a01b031633146103375760405162461bcd60e51b81526004016101b79061095a565b6001600160a01b0384166000908152600260205260409020548490156103705760405163fdb6137760e01b815260040160405180910390fd5b83838080602002602001604051908101604052809392919081815260200183836020028082843760009201829052508451900392506103c591505057604051631eda577d60e11b815260040160405180910390fd5b600180548082019091557fb10e2d527612073b26eecdfd717e6a320cf44b4afac2b0732d9fcbe2b7fa0cf60180546001600160a01b0319166001600160a01b03881690811790915560009081526002602052604090206104269086866107f3565b50856001600160a01b03167f8cfa048f319519100018c070f5b70ebdb10f75f14622c98ec59725c0de0f12f186866040516104629291906109cc565b60405180910390a25050600154949350505050565b6000805b6001600160a01b0384166000908152600260205260409020548110156104f4576001600160a01b03841660009081526002602052604090208054849190839081106104c8576104c861098f565b9060005260206000200154036104e25760019150506104fa565b806104ec816109a5565b91505061047b565b50600090505b92915050565b6002602052816000526040600020818154811061051c57600080fd5b90600052602060002001600091509150505481565b6001600160a01b03831660009081526002602052604081205484910361056a5760405163163091ab60e21b815260040160405180910390fd5b82828080602002602001604051908101604052809392919081815260200183836020028082843760009201829052508451900392506105bf91505057604051631eda577d60e11b815260040160405180910390fd5b6000546001600160a01b031633146105e95760405162461bcd60e51b81526004016101b79061095a565b6001600160a01b038516600090815260026020526040902061060c9085856107f3565b50846001600160a01b03167f67adb3160f1b29d02eaac3d30a18ecfd19d38ea4c4777c300a6572f21918188c85856040516106489291906109cc565b60405180910390a25050505050565b6000805b6001548110156106b757826001600160a01b0316600182815481106106825761068261098f565b6000918252602090912001546001600160a01b0316036106a55750600192915050565b806106af816109a5565b91505061065b565b50600092915050565b6000546001600160a01b031633146106ea5760405162461bcd60e51b81526004016101b79061095a565b6001600160a01b03811661074f5760405162461bcd60e51b815260206004820152602660248201527f4f776e61626c653a206e6577206f776e657220697320746865207a65726f206160448201526564647265737360d01b60648201526084016101b7565b61075881610785565b50565b6001818154811061076b57600080fd5b6000918252602090912001546001600160a01b0316905081565b600080546001600160a01b038381166001600160a01b0319831681178455604051919092169283917f8be0079c531659141344cd1fd0a4f28419497f9722a3daafe3b4186f6b6457e09190a35050565b5080546000825590600052602060002090810190610758919061083e565b82805482825590600052602060002090810192821561082e579160200282015b8281111561082e578235825591602001919060010190610813565b5061083a92915061083e565b5090565b5b8082111561083a576000815560010161083f565b80356001600160a01b038116811461086a57600080fd5b919050565b60006020828403121561088157600080fd5b61088a82610853565b9392505050565b6000806000604084860312156108a657600080fd5b6108af84610853565b9250602084013567ffffffffffffffff808211156108cc57600080fd5b818601915086601f8301126108e057600080fd5b8135818111156108ef57600080fd5b8760208260051b850101111561090457600080fd5b6020830194508093505050509250925092565b6000806040838503121561092a57600080fd5b61093383610853565b946020939093013593505050565b60006020828403121561095357600080fd5b5035919050565b6020808252818101527f4f776e61626c653a2063616c6c6572206973206e6f7420746865206f776e6572604082015260600190565b634e487b7160e01b600052603260045260246000fd5b6000600182016109c557634e487b7160e01b600052601160045260246000fd5b5060010190565b6020808252810182905260006001600160fb1b038311156109ec57600080fd5b8260051b8085604085013760009201604001918252509291505056fea26469706673582212201a8f94d93198c5638ad108317535307dafaf9c99faa8b60f5c77b5bf76cbce9064736f6c634300080e0033",
    "linkReferences": {}
  },
  "methodIdentifiers": {
    "_verifierTrustedTopics(address,uint256)": "dd5ae160",
    "_verifiers(uint256)": "f7efada2",
    "addTrustedVerifier(address,uint256[])": "81e45bd2",
    "checkIsVerifier(address)": "f0f40189",
    "checkIsVerifierTrustedTopic(address,uint256)": "c4460975",
    "owner()": "8da5cb5b",
    "removeTrustedVerifier(address)": "801d2cf1",
    "renounceOwnership()": "715018a6",
    "transferOwnership(address)": "f2fde38b",
    "updateVerifierClaimTopics(address,uint256[])": "ecccf27b"
  },
  "id": 4
}