{
  "abi": [
    {
      "inputs": [
        {
          "internalType": "address",
          "name": "paymentToken",
          "type": "address"
        },
        {
          "internalType": "uint8",
          "name": "txFeePercentage",
          "type": "uint8"
        }
      ],
      "stateMutability": "nonpayable",
      "type": "constructor"
    },
    {
      "anonymous": false,
      "inputs": [
        {
          "indexed": true,
          "internalType": "address",
          "name": "previousOwner",
          "type": "address"
        },
        {
          "indexed": true,
          "internalType": "address",
          "name": "newOwner",
          "type": "address"
        }
      ],
      "name": "OwnershipTransferred",
      "type": "event"
    },
    {
      "inputs": [
        {
          "components": [
            {
              "internalType": "address",
              "name": "from",
              "type": "address"
            },
            {
              "internalType": "address",
              "name": "to",
              "type": "address"
            },
            {
              "internalType": "uint256",
              "name": "value",
              "type": "uint256"
            },
            {
              "internalType": "uint256",
              "name": "gas",
              "type": "uint256"
            },
            {
              "internalType": "uint256",
              "name": "nonce",
              "type": "uint256"
            },
            {
              "internalType": "bytes",
              "name": "data",
              "type": "bytes"
            }
          ],
          "internalType": "struct MinimalForwarder.ForwardRequest",
          "name": "req",
          "type": "tuple"
        },
        {
          "internalType": "bytes",
          "name": "signature",
          "type": "bytes"
        }
      ],
      "name": "execute",
      "outputs": [
        {
          "internalType": "bool",
          "name": "",
          "type": "bool"
        },
        {
          "internalType": "bytes",
          "name": "",
          "type": "bytes"
        }
      ],
      "stateMutability": "payable",
      "type": "function"
    },
    {
      "inputs": [
        {
          "internalType": "address",
          "name": "from",
          "type": "address"
        }
      ],
      "name": "getNonce",
      "outputs": [
        {
          "internalType": "uint256",
          "name": "",
          "type": "uint256"
        }
      ],
      "stateMutability": "view",
      "type": "function"
    },
    {
      "inputs": [],
      "name": "owner",
      "outputs": [
        {
          "internalType": "address",
          "name": "",
          "type": "address"
        }
      ],
      "stateMutability": "view",
      "type": "function"
    },
    {
      "inputs": [],
      "name": "renounceOwnership",
      "outputs": [],
      "stateMutability": "nonpayable",
      "type": "function"
    },
    {
      "inputs": [
        {
          "internalType": "address",
          "name": "paymentToken",
          "type": "address"
        }
      ],
      "name": "setProtocolToken",
      "outputs": [],
      "stateMutability": "nonpayable",
      "type": "function"
    },
    {
      "inputs": [
        {
          "internalType": "uint8",
          "name": "txFeePercentage",
          "type": "uint8"
        }
      ],
      "name": "setTxFeePercentage",
      "outputs": [],
      "stateMutability": "nonpayable",
      "type": "function"
    },
    {
      "inputs": [
        {
          "internalType": "address",
          "name": "newOwner",
          "type": "address"
        }
      ],
      "name": "transferOwnership",
      "outputs": [],
      "stateMutability": "nonpayable",
      "type": "function"
    },
    {
      "inputs": [
        {
          "components": [
            {
              "internalType": "address",
              "name": "from",
              "type": "address"
            },
            {
              "internalType": "address",
              "name": "to",
              "type": "address"
            },
            {
              "internalType": "uint256",
              "name": "value",
              "type": "uint256"
            },
            {
              "internalType": "uint256",
              "name": "gas",
              "type": "uint256"
            },
            {
              "internalType": "uint256",
              "name": "nonce",
              "type": "uint256"
            },
            {
              "internalType": "bytes",
              "name": "data",
              "type": "bytes"
            }
          ],
          "internalType": "struct MinimalForwarder.ForwardRequest",
          "name": "req",
          "type": "tuple"
        },
        {
          "internalType": "bytes",
          "name": "signature",
          "type": "bytes"
        }
      ],
      "name": "verify",
      "outputs": [
        {
          "internalType": "bool",
          "name": "",
          "type": "bool"
        }
      ],
      "stateMutability": "view",
      "type": "function"
    },
    {
      "inputs": [
        {
          "internalType": "uint256",
          "name": "amount",
          "type": "uint256"
        },
        {
          "internalType": "address",
          "name": "tokenAddress",
          "type": "address"
        }
      ],
      "name": "withdraw",
      "outputs": [],
      "stateMutability": "nonpayable",
      "type": "function"
    }
  ],
  "bytecode": {
    "object": "0x61014060405234801561001157600080fd5b50604051611120380380611120833981016040819052610030916101bd565b604080518082018252601081526f26b4b734b6b0b62337b93bb0b93232b960811b602080830191825283518085019094526005845264302e302e3160d81b908401528151902060e08190527fae209a0b48f21c054280f2455d32cf309387644879d9acbd8ffc1991638118856101008190524660a0529192917f8b73c3c69bb8fe3d512ecc4cf759cc79239f7b179b0ffacaa9a75d522b39400f6101198184846040805160208101859052908101839052606081018290524660808201523060a082015260009060c0016040516020818303038152906040528051906020012090509392505050565b6080523060c052610120525061013992506101349150503390565b61016b565b6002805460ff909216600160a01b026001600160a81b03199092166001600160a01b0390931692909217179055610209565b600180546001600160a01b038381166001600160a01b0319831681179093556040519116919082907f8be0079c531659141344cd1fd0a4f28419497f9722a3daafe3b4186f6b6457e090600090a35050565b600080604083850312156101d057600080fd5b82516001600160a01b03811681146101e757600080fd5b602084015190925060ff811681146101fe57600080fd5b809150509250929050565b60805160a05160c05160e0516101005161012051610ec861025860003960006107e701526000610836015260006108110152600061076a01526000610794015260006107be0152610ec86000f3fe6080604052600436106100855760003560e01c806356d229b01161005957806356d229b014610136578063715018a6146101565780638da5cb5b1461016b578063bf5d3bdb14610193578063f2fde38b146101c357600080fd5b8062f714ce1461008a5780632d0335ab146100ac5780633967f87e146100f557806347153f8214610115575b600080fd5b34801561009657600080fd5b506100aa6100a5366004610bea565b6101e3565b005b3480156100b857600080fd5b506100e26100c7366004610c16565b6001600160a01b031660009081526020819052604090205490565b6040519081526020015b60405180910390f35b34801561010157600080fd5b506100aa610110366004610c38565b61021a565b610128610123366004610c5b565b610264565b6040516100ec929190610d2a565b34801561014257600080fd5b506100aa610151366004610c16565b6103f8565b34801561016257600080fd5b506100aa610444565b34801561017757600080fd5b506001546040516001600160a01b0390911681526020016100ec565b34801561019f57600080fd5b506101b36101ae366004610c5b565b61047a565b60405190151581526020016100ec565b3480156101cf57600080fd5b506100aa6101de366004610c16565b6105f8565b6001546001600160a01b031633146102165760405162461bcd60e51b815260040161020d90610d66565b60405180910390fd5b5050565b6001546001600160a01b031633146102445760405162461bcd60e51b815260040161020d90610d66565b6002805460ff909216600160a01b0260ff60a01b19909216919091179055565b6000606061027385858561047a565b6102da5760405162461bcd60e51b815260206004820152603260248201527f4d696e696d616c466f727761726465723a207369676e617475726520646f6573604482015271081b9bdd081b585d18da081c995c5d595cdd60721b606482015260840161020d565b6102e960808601356001610d9b565b6000806102f96020890189610c16565b6001600160a01b03166001600160a01b03168152602001908152602001600020819055506000808660200160208101906103339190610c16565b6001600160a01b03166060880135604089013561035360a08b018b610dc1565b61036060208d018d610c16565b60405160200161037293929190610e08565b60408051601f198184030181529082905261038c91610e2e565b600060405180830381858888f193505050503d80600081146103ca576040519150601f19603f3d011682016040523d82523d6000602084013e6103cf565b606091505b5090925090506103e4603f6060890135610e4a565b5a116103ec57fe5b90969095509350505050565b6001546001600160a01b031633146104225760405162461bcd60e51b815260040161020d90610d66565b600280546001600160a01b0319166001600160a01b0392909216919091179055565b6001546001600160a01b0316331461046e5760405162461bcd60e51b815260040161020d90610d66565b6104786000610693565b565b60008061058d84848080601f01602080910402602001604051908101604052809392919081815260200183838082843760009201919091525061058792507fdd8f4b70b0f4393e889bd39128a30628a78b61816a9eb8199759e7a349657e4891506104ea905060208a018a610c16565b6104fa60408b0160208c01610c16565b60408b013560608c013560808d013561051660a08f018f610dc1565b604051610524929190610e6c565b6040805191829003822060208301989098526001600160a01b0396871690820152949093166060850152608084019190915260a083015260c082015260e081019190915261010001604051602081830303815290604052805190602001206106e5565b90610739565b905060808501356000806105a46020890189610c16565b6001600160a01b03166001600160a01b03168152602001908152602001600020541480156105ef57506105da6020860186610c16565b6001600160a01b0316816001600160a01b0316145b95945050505050565b6001546001600160a01b031633146106225760405162461bcd60e51b815260040161020d90610d66565b6001600160a01b0381166106875760405162461bcd60e51b815260206004820152602660248201527f4f776e61626c653a206e6577206f776e657220697320746865207a65726f206160448201526564647265737360d01b606482015260840161020d565b61069081610693565b50565b600180546001600160a01b038381166001600160a01b0319831681179093556040519116919082907f8be0079c531659141344cd1fd0a4f28419497f9722a3daafe3b4186f6b6457e090600090a35050565b60006107336106f261075d565b8360405161190160f01b6020820152602281018390526042810182905260009060620160405160208183030381529060405280519060200120905092915050565b92915050565b60008060006107488585610884565b91509150610755816108f2565b509392505050565b6000306001600160a01b037f0000000000000000000000000000000000000000000000000000000000000000161480156107b657507f000000000000000000000000000000000000000000000000000000000000000046145b156107e057507f000000000000000000000000000000000000000000000000000000000000000090565b50604080517f00000000000000000000000000000000000000000000000000000000000000006020808301919091527f0000000000000000000000000000000000000000000000000000000000000000828401527f000000000000000000000000000000000000000000000000000000000000000060608301524660808301523060a0808401919091528351808403909101815260c0909201909252805191012090565b60008082516041036108ba5760208301516040840151606085015160001a6108ae87828585610aa8565b945094505050506108eb565b82516040036108e357602083015160408401516108d8868383610b95565b9350935050506108eb565b506000905060025b9250929050565b600081600481111561090657610906610e7c565b0361090e5750565b600181600481111561092257610922610e7c565b0361096f5760405162461bcd60e51b815260206004820152601860248201527f45434453413a20696e76616c6964207369676e61747572650000000000000000604482015260640161020d565b600281600481111561098357610983610e7c565b036109d05760405162461bcd60e51b815260206004820152601f60248201527f45434453413a20696e76616c6964207369676e6174757265206c656e67746800604482015260640161020d565b60038160048111156109e4576109e4610e7c565b03610a3c5760405162461bcd60e51b815260206004820152602260248201527f45434453413a20696e76616c6964207369676e6174757265202773272076616c604482015261756560f01b606482015260840161020d565b6004816004811115610a5057610a50610e7c565b036106905760405162461bcd60e51b815260206004820152602260248201527f45434453413a20696e76616c6964207369676e6174757265202776272076616c604482015261756560f01b606482015260840161020d565b6000807f7fffffffffffffffffffffffffffffff5d576e7357a4501ddfe92f46681b20a0831115610adf5750600090506003610b8c565b8460ff16601b14158015610af757508460ff16601c14155b15610b085750600090506004610b8c565b6040805160008082526020820180845289905260ff881692820192909252606081018690526080810185905260019060a0016020604051602081039080840390855afa158015610b5c573d6000803e3d6000fd5b5050604051601f1901519150506001600160a01b038116610b8557600060019250925050610b8c565b9150600090505b94509492505050565b6000806001600160ff1b03831681610bb260ff86901c601b610d9b565b9050610bc087828885610aa8565b935093505050935093915050565b80356001600160a01b0381168114610be557600080fd5b919050565b60008060408385031215610bfd57600080fd5b82359150610c0d60208401610bce565b90509250929050565b600060208284031215610c2857600080fd5b610c3182610bce565b9392505050565b600060208284031215610c4a57600080fd5b813560ff81168114610c3157600080fd5b600080600060408486031215610c7057600080fd5b833567ffffffffffffffff80821115610c8857600080fd5b9085019060c08288031215610c9c57600080fd5b90935060208501359080821115610cb257600080fd5b818601915086601f830112610cc657600080fd5b813581811115610cd557600080fd5b876020828501011115610ce757600080fd5b6020830194508093505050509250925092565b60005b83811015610d15578181015183820152602001610cfd565b83811115610d24576000848401525b50505050565b82151581526040602082015260008251806040840152610d51816060850160208701610cfa565b601f01601f1916919091016060019392505050565b6020808252818101527f4f776e61626c653a2063616c6c6572206973206e6f7420746865206f776e6572604082015260600190565b60008219821115610dbc57634e487b7160e01b600052601160045260246000fd5b500190565b6000808335601e19843603018112610dd857600080fd5b83018035915067ffffffffffffffff821115610df357600080fd5b6020019150368190038213156108eb57600080fd5b8284823760609190911b6bffffffffffffffffffffffff19169101908152601401919050565b60008251610e40818460208701610cfa565b9190910192915050565b600082610e6757634e487b7160e01b600052601260045260246000fd5b500490565b8183823760009101908152919050565b634e487b7160e01b600052602160045260246000fdfea26469706673582212202e9dcb4cb59704ba4e7c8ca4ff048c50411d9c0d141deb36316da1952f62b77064736f6c634300080e0033",
    "linkReferences": {}
  },
  "methodIdentifiers": {
    "execute((address,address,uint256,uint256,uint256,bytes),bytes)": "47153f82",
    "getNonce(address)": "2d0335ab",
    "owner()": "8da5cb5b",
    "renounceOwnership()": "715018a6",
    "setProtocolToken(address)": "56d229b0",
    "setTxFeePercentage(uint8)": "3967f87e",
    "transferOwnership(address)": "f2fde38b",
    "verify((address,address,uint256,uint256,uint256,bytes),bytes)": "bf5d3bdb",
    "withdraw(uint256,address)": "00f714ce"
  },
  "id": 13
}